{
  "address": "0xe7f1725E7734CE288F8367e1Bb143E90bb3F0512",
  "abi": [
    {
      "inputs": [
        {
          "internalType": "address",
          "name": "priceFeedAddress",
          "type": "address"
        }
      ],
      "stateMutability": "nonpayable",
      "type": "constructor"
    },
    {
      "inputs": [],
      "name": "FundMe__NotOwner",
      "type": "error"
    },
    {
      "inputs": [],
      "name": "MINIMUM_USD",
      "outputs": [
        {
          "internalType": "uint256",
          "name": "",
          "type": "uint256"
        }
      ],
      "stateMutability": "view",
      "type": "function"
    },
    {
      "inputs": [],
      "name": "cheaperWithdraw",
      "outputs": [],
      "stateMutability": "payable",
      "type": "function"
    },
    {
      "inputs": [],
      "name": "fund",
      "outputs": [],
      "stateMutability": "payable",
      "type": "function"
    },
    {
      "inputs": [
        {
          "internalType": "address",
          "name": "funder",
          "type": "address"
        }
      ],
      "name": "getAddressToAmountFunded",
      "outputs": [
        {
          "internalType": "uint256",
          "name": "",
          "type": "uint256"
        }
      ],
      "stateMutability": "view",
      "type": "function"
    },
    {
      "inputs": [
        {
          "internalType": "uint256",
          "name": "index",
          "type": "uint256"
        }
      ],
      "name": "getFunder",
      "outputs": [
        {
          "internalType": "address",
          "name": "",
          "type": "address"
        }
      ],
      "stateMutability": "view",
      "type": "function"
    },
    {
      "inputs": [],
      "name": "getOwner",
      "outputs": [
        {
          "internalType": "address",
          "name": "",
          "type": "address"
        }
      ],
      "stateMutability": "view",
      "type": "function"
    },
    {
      "inputs": [],
      "name": "getPriceFeed",
      "outputs": [
        {
          "internalType": "contract AggregatorV3Interface",
          "name": "",
          "type": "address"
        }
      ],
      "stateMutability": "view",
      "type": "function"
    },
    {
      "inputs": [],
      "name": "withdraw",
      "outputs": [],
      "stateMutability": "nonpayable",
      "type": "function"
    }
  ],
  "transactionHash": "0xb05adc4e7a06d75ffb97b8eb92e2b9f5e3900f55b17752b74ee61b09d83f6097",
  "args": [
    "0x5FbDB2315678afecb367f032d93F642f64180aa3"
  ],
  "numDeployments": 1,
  "solcInputHash": "2b211b9a610840cfd929ca251b9884b1",
  "bytecode": "0x60a06040523480156200001157600080fd5b50604051620013843803806200138483398181016040528101906200003791906200011d565b80600260006101000a81548173ffffffffffffffffffffffffffffffffffffffff021916908373ffffffffffffffffffffffffffffffffffffffff1602179055503373ffffffffffffffffffffffffffffffffffffffff1660808173ffffffffffffffffffffffffffffffffffffffff1681525050506200014f565b600080fd5b600073ffffffffffffffffffffffffffffffffffffffff82169050919050565b6000620000e582620000b8565b9050919050565b620000f781620000d8565b81146200010357600080fd5b50565b6000815190506200011781620000ec565b92915050565b600060208284031215620001365762000135620000b3565b5b6000620001468482850162000106565b91505092915050565b60805161120b62000179600039600081816101f1015281816104400152610608015261120b6000f3fe60806040526004361061007b5760003560e01c80639e87a5cd1161004e5780639e87a5cd1461012a578063b60d428814610155578063be2693f01461015f578063d7b4750c146101695761007b565b80630343fb25146100805780633ccfd60b146100bd5780636b69a592146100d4578063893d20e8146100ff575b600080fd5b34801561008c57600080fd5b506100a760048036038101906100a29190610b99565b6101a6565b6040516100b49190610bdf565b60405180910390f35b3480156100c957600080fd5b506100d26101ef565b005b3480156100e057600080fd5b506100e961042f565b6040516100f69190610bdf565b60405180910390f35b34801561010b57600080fd5b5061011461043c565b6040516101219190610c09565b60405180910390f35b34801561013657600080fd5b5061013f610464565b60405161014c9190610c83565b60405180910390f35b61015d61048e565b005b610167610606565b005b34801561017557600080fd5b50610190600480360381019061018b9190610cca565b6108aa565b60405161019d9190610c09565b60405180910390f35b6000600160008373ffffffffffffffffffffffffffffffffffffffff1673ffffffffffffffffffffffffffffffffffffffff168152602001908152602001600020549050919050565b7f000000000000000000000000000000000000000000000000000000000000000073ffffffffffffffffffffffffffffffffffffffff163373ffffffffffffffffffffffffffffffffffffffff1614610274576040517f579610db00000000000000000000000000000000000000000000000000000000815260040160405180910390fd5b60005b60008054905081101561031f57600080828154811061029957610298610cf7565b5b9060005260206000200160009054906101000a900473ffffffffffffffffffffffffffffffffffffffff1690506000600160008373ffffffffffffffffffffffffffffffffffffffff1673ffffffffffffffffffffffffffffffffffffffff1681526020019081526020016000208190555050808061031790610d55565b915050610277565b50600067ffffffffffffffff81111561033b5761033a610d9e565b5b6040519080825280602002602001820160405280156103695781602001602082028036833780820191505090505b506000908051906020019061037f929190610a8f565b5060003373ffffffffffffffffffffffffffffffffffffffff16476040516103a690610dfe565b60006040518083038185875af1925050503d80600081146103e3576040519150601f19603f3d011682016040523d82523d6000602084013e6103e8565b606091505b505090508061042c576040517f08c379a000000000000000000000000000000000000000000000000000000000815260040161042390610e70565b60405180910390fd5b50565b6802b5e3af16b188000081565b60007f0000000000000000000000000000000000000000000000000000000000000000905090565b6000600260009054906101000a900473ffffffffffffffffffffffffffffffffffffffff16905090565b6104cb6104c6600260009054906101000a900473ffffffffffffffffffffffffffffffffffffffff16346108f190919063ffffffff16565b61092d565b6104dd6802b5e3af16b188000061092d565b6802b5e3af16b188000061051c600260009054906101000a900473ffffffffffffffffffffffffffffffffffffffff16346108f190919063ffffffff16565b101561055d576040517f08c379a000000000000000000000000000000000000000000000000000000000815260040161055490610edc565b60405180910390fd5b6000339080600181540180825580915050600190039060005260206000200160009091909190916101000a81548173ffffffffffffffffffffffffffffffffffffffff021916908373ffffffffffffffffffffffffffffffffffffffff16021790555034600160003373ffffffffffffffffffffffffffffffffffffffff1673ffffffffffffffffffffffffffffffffffffffff16815260200190815260200160002081905550565b7f000000000000000000000000000000000000000000000000000000000000000073ffffffffffffffffffffffffffffffffffffffff163373ffffffffffffffffffffffffffffffffffffffff161461068b576040517f579610db00000000000000000000000000000000000000000000000000000000815260040160405180910390fd5b60008080548060200260200160405190810160405280929190818152602001828054801561070e57602002820191906000526020600020905b8160009054906101000a900473ffffffffffffffffffffffffffffffffffffffff1673ffffffffffffffffffffffffffffffffffffffff16815260200190600101908083116106c4575b5050505050905060005b815181101561079957600082828151811061073657610735610cf7565b5b602002602001015190506000600160008373ffffffffffffffffffffffffffffffffffffffff1673ffffffffffffffffffffffffffffffffffffffff1681526020019081526020016000208190555050808061079190610d55565b915050610718565b50600067ffffffffffffffff8111156107b5576107b4610d9e565b5b6040519080825280602002602001820160405280156107e35781602001602082028036833780820191505090505b50600090805190602001906107f9929190610a8f565b5060003373ffffffffffffffffffffffffffffffffffffffff164760405161082090610dfe565b60006040518083038185875af1925050503d806000811461085d576040519150601f19603f3d011682016040523d82523d6000602084013e610862565b606091505b50509050806108a6576040517f08c379a000000000000000000000000000000000000000000000000000000000815260040161089d90610e70565b60405180910390fd5b5050565b60008082815481106108bf576108be610cf7565b5b9060005260206000200160009054906101000a900473ffffffffffffffffffffffffffffffffffffffff169050919050565b6000806108fd836109c6565b90506000670de0b6b3a764000085836109169190610efc565b6109209190610f85565b9050809250505092915050565b6109c3816040516024016109419190610bdf565b6040516020818303038152906040527ff5b1bba9000000000000000000000000000000000000000000000000000000007bffffffffffffffffffffffffffffffffffffffffffffffffffffffff19166020820180517bffffffffffffffffffffffffffffffffffffffffffffffffffffffff8381831617835250505050610a66565b50565b6000808273ffffffffffffffffffffffffffffffffffffffff1663feaf968c6040518163ffffffff1660e01b815260040160a06040518083038186803b158015610a0f57600080fd5b505afa158015610a23573d6000803e3d6000fd5b505050506040513d601f19601f82011682018060405250810190610a479190611043565b5050509150506402540be40081610a5e91906110be565b915050919050565b60008151905060006a636f6e736f6c652e6c6f679050602083016000808483855afa5050505050565b828054828255906000526020600020908101928215610b08579160200282015b82811115610b075782518260006101000a81548173ffffffffffffffffffffffffffffffffffffffff021916908373ffffffffffffffffffffffffffffffffffffffff16021790555091602001919060010190610aaf565b5b509050610b159190610b19565b5090565b5b80821115610b32576000816000905550600101610b1a565b5090565b600080fd5b600073ffffffffffffffffffffffffffffffffffffffff82169050919050565b6000610b6682610b3b565b9050919050565b610b7681610b5b565b8114610b8157600080fd5b50565b600081359050610b9381610b6d565b92915050565b600060208284031215610baf57610bae610b36565b5b6000610bbd84828501610b84565b91505092915050565b6000819050919050565b610bd981610bc6565b82525050565b6000602082019050610bf46000830184610bd0565b92915050565b610c0381610b5b565b82525050565b6000602082019050610c1e6000830184610bfa565b92915050565b6000819050919050565b6000610c49610c44610c3f84610b3b565b610c24565b610b3b565b9050919050565b6000610c5b82610c2e565b9050919050565b6000610c6d82610c50565b9050919050565b610c7d81610c62565b82525050565b6000602082019050610c986000830184610c74565b92915050565b610ca781610bc6565b8114610cb257600080fd5b50565b600081359050610cc481610c9e565b92915050565b600060208284031215610ce057610cdf610b36565b5b6000610cee84828501610cb5565b91505092915050565b7f4e487b7100000000000000000000000000000000000000000000000000000000600052603260045260246000fd5b7f4e487b7100000000000000000000000000000000000000000000000000000000600052601160045260246000fd5b6000610d6082610bc6565b91507fffffffffffffffffffffffffffffffffffffffffffffffffffffffffffffffff821415610d9357610d92610d26565b5b600182019050919050565b7f4e487b7100000000000000000000000000000000000000000000000000000000600052604160045260246000fd5b600081905092915050565b50565b6000610de8600083610dcd565b9150610df382610dd8565b600082019050919050565b6000610e0982610ddb565b9150819050919050565b600082825260208201905092915050565b7f43616c6c206661696c6564000000000000000000000000000000000000000000600082015250565b6000610e5a600b83610e13565b9150610e6582610e24565b602082019050919050565b60006020820190508181036000830152610e8981610e4d565b9050919050565b7f4469646e742073656e6420656e6f756768000000000000000000000000000000600082015250565b6000610ec6601183610e13565b9150610ed182610e90565b602082019050919050565b60006020820190508181036000830152610ef581610eb9565b9050919050565b6000610f0782610bc6565b9150610f1283610bc6565b9250817fffffffffffffffffffffffffffffffffffffffffffffffffffffffffffffffff0483118215151615610f4b57610f4a610d26565b5b828202905092915050565b7f4e487b7100000000000000000000000000000000000000000000000000000000600052601260045260246000fd5b6000610f9082610bc6565b9150610f9b83610bc6565b925082610fab57610faa610f56565b5b828204905092915050565b600069ffffffffffffffffffff82169050919050565b610fd581610fb6565b8114610fe057600080fd5b50565b600081519050610ff281610fcc565b92915050565b6000819050919050565b61100b81610ff8565b811461101657600080fd5b50565b60008151905061102881611002565b92915050565b60008151905061103d81610c9e565b92915050565b600080600080600060a0868803121561105f5761105e610b36565b5b600061106d88828901610fe3565b955050602061107e88828901611019565b945050604061108f8882890161102e565b93505060606110a08882890161102e565b92505060806110b188828901610fe3565b9150509295509295909350565b60006110c982610ff8565b91506110d483610ff8565b9250827f7fffffffffffffffffffffffffffffffffffffffffffffffffffffffffffffff048211600084136000841316161561111357611112610d26565b5b817f800000000000000000000000000000000000000000000000000000000000000005831260008412600084131616156111505761114f610d26565b5b827f8000000000000000000000000000000000000000000000000000000000000000058212600084136000841216161561118d5761118c610d26565b5b827f7fffffffffffffffffffffffffffffffffffffffffffffffffffffffffffffff05821260008412600084121616156111ca576111c9610d26565b5b82820290509291505056fea26469706673582212200dd4186ae39229429bf93adf8ca7133286d1db94eb2ecd292cba60b9a4089e4b64736f6c63430008090033",
  "devdoc": {
    "author": "Spencer Shelton",
    "details": "This implements price feeds as our library",
    "kind": "dev",
    "methods": {
      "fund()": {
        "details": "This implements price feeds as our library"
      }
    },
    "title": "A contract for crowd funcing",
    "version": 1
  },
  "userdoc": {
    "kind": "user",
    "methods": {
      "fund()": {
        "notice": "this function funds this contract"
      }
    },
    "notice": "this contact is to demo a sample funding contract",
    "version": 1
  },
  "storageLayout": {
    "storage": [
      {
        "astId": 66,
        "contract": "contracts/FundMe.sol:FundMe",
        "label": "s_funders",
        "offset": 0,
        "slot": "0",
        "type": "t_array(t_address)dyn_storage"
      },
      {
        "astId": 70,
        "contract": "contracts/FundMe.sol:FundMe",
        "label": "s_addressToAmountFunded",
        "offset": 0,
        "slot": "1",
        "type": "t_mapping(t_address,t_uint256)"
      },
      {
        "astId": 73,
        "contract": "contracts/FundMe.sol:FundMe",
        "label": "s_priceFeed",
        "offset": 0,
        "slot": "2",
        "type": "t_contract(AggregatorV3Interface)45"
      }
    ],
    "types": {
      "t_address": {
        "encoding": "inplace",
        "label": "address",
        "numberOfBytes": "20"
      },
      "t_array(t_address)dyn_storage": {
        "base": "t_address",
        "encoding": "dynamic_array",
        "label": "address[]",
        "numberOfBytes": "32"
      },
      "t_contract(AggregatorV3Interface)45": {
        "encoding": "inplace",
        "label": "contract AggregatorV3Interface",
        "numberOfBytes": "20"
      },
      "t_mapping(t_address,t_uint256)": {
        "encoding": "mapping",
        "key": "t_address",
        "label": "mapping(address => uint256)",
        "numberOfBytes": "32",
        "value": "t_uint256"
      },
      "t_uint256": {
        "encoding": "inplace",
        "label": "uint256",
        "numberOfBytes": "32"
      }
    }
  }
}